:020000040800F2
:1000000018040020D90000088B090008890900089D
:1000100000000000000000000000000000000000E0
:100020000000000000000000000000008F09000830
:1000300000000000000000008D0900089109000880
:10004000EB000008EB000008EB000008EB000008E4
:10005000EB000008EB000008EB0000080D020008B0
:10006000EB000008EB000008EB000008EB000008C4
:10007000EB000008EB000008EB000008EB090008AB
:10008000EB000008EB000008EB000008EB000008A4
:10009000EB000008EB000008EB000008EB00000894
:1000A000EB000008EB000008EB000008EB00000884
:1000B000EB000008EB000008EB000008EB00000874
:1000C0000448854600F090F800480047410B0008BE
:1000D000C046C04618040020044880470448004732
:1000E000FEE7FEE7FEE7FEE7FEE7FEE7E9090008B8
:1000F000C100000830B50B46014600202022012433
:1001000009E00D46D5409D4205D31D469540491B4B
:100110002546954040191546521E002DF1DC30BD94
:10012000F0B51FB40646002082B005464024019178
:1001300000901BE0019922460F46304600F020F85F
:10014000049A059B801A994110D3104619462246FD
:1001500000F039F8361A8F4101972246012000211C
:10016000009F00F030F838184D4100902046641E82
:100170000028DFDC019B00982946324607B0F0BD1D
:1001800010B5202A04DB0846203AD040002110BDDB
:100190000B46D340D0402024A21A91400843194670
:1001A00010BDD2B201E00270401C491EFBD2704764
:1001B0000022F6E710B513460A4604461946FFF733
:1001C000F0FF204610BD10B5202A04DB0146203A7E
:1001D0009140002010BD914020239C1A0346E3402B
:1001E0001943904010BD0000064C0125064E05E065
:1001F000E36807CC2B430C3C98471034B442F7D348
:10020000FFF762FF500C0008700C0008F8B52B4D8A
:100210002868401C2860286801267602012803D936
:100220002748416931434161012000F0BDFC00F0E5
:10023000F1FC244C0720A06200F0E4FC022000F056
:100240009BFC00F0D3FB636A00F0D0FB606A1A02EB
:10025000024300F0D7FC6A60022000F0A5FC00F029
:10026000D9FC0420A06200F0D5FC0027A76200F0B2
:10027000C9FC022000F098FC00F0CCFC0520A06234
:1002800000F0C8FCA76200F0BDFC022000F08CFC6E
:1002900000F0C0FC0620A06200F0BCFCA76200F0E9
:1002A000B1FC09484169314341612868012804D9FA
:1002B00003484169802211434161F8BD00000020DC
:1002C00000080048005800400004014070B5044692
:1002D00000F00EF80546601C02D00448007824188F
:1002E00000F006F8401BA042FAD370BD08000020C1
:1002F00001488068704700000800002002488168BB
:1003000002788918816070470800002010B50648FF
:100310000168102211430160002000F007F800F08E
:1003200027F8002010BD00000020024070B50446F0
:100330000D4D7D202978C000FFF7DCFE01460B48FB
:100340000068FFF7D7FE00F007FB002809D1042C56
:1003500007D200222146401E00F01EF800206C60EB
:1003600070BD012070BD00000800002014000020B6
:1003700008B50848816901221143816181691140F2
:100380000091C26901040A43C261C069084000903B
:1003900008BD00000010024010B500F047FB10BD82
:1003A000F8B50F4606005FD03D4D2868C007C00F66
:1003B000B84209D2286840084000384328602868BD
:1003C000C007C00FB8424FD13068364C81070CD5FA
:1003D000400704D56068072109020843606060682F
:1003E000F0218843B168084360603078C0072CD0A2
:1003F0007068012810D0022811D0032812D021687B
:100400008907002930DA6168890889000143616041
:10041000FFF76EFF009011E021688903F1E7216882
:100420008901EEE7616BC903EBE7FFF761FF009914
:10043000411A1D48814201D90320F8BD60680C2192
:100440000840716889008842EFD12868C007C00F52
:10045000B8420BD928684008400038432860286813
:10046000C007C00FB84201D00120F8BD3078400766
:1004700006D56068072109028843F1680843606077
:1004800000F01EF86168094A0906090F515CC8406E
:10049000074908600020FFF749FF0020F8BD000071
:1004A000002002400010024088130000400C0008A9
:1004B000140000200148006870470000140000206C
:1004C00030B519A30FCB89B06C460FC41AA30FCB5C
:1004D0000FC41D4A51680C200B4603401B48042BD7
:1004E00005D01B4D082B04D00C2B00D1284609B099
:1004F00030BD8B021B0F6C46E45CD26A04AB120762
:10050000120FC9039A5C890F022901D0032901D077
:10051000002301E0002328460021FFF701FE2146C9
:1005200000F06CFAE3E7000002030405060708097F
:100530000A0B0C0D0E0F101001020304050607082C
:10054000090A0B0C0D0E0F100010024000127A0069
:10055000006CDC02FEB5040070D02078F94EFA4D34
:10056000C00748D068680007800F01281FD068685E
:100570000007800F022804D16868C003800F02289A
:1005800015D06168012919D001208004002901D00B
:10059000052917D02968B14329602968814329605A
:1005A000606800281BD0FFF7A3FE074613E0286809
:1005B000800320D560680028CED01CE02868304336
:1005C0002860EDE7296801432960F7E7FFF790FE0F
:1005D000C01B642870D828688003F7D50BE0FFF7AC
:1005E00087FE074604E0FFF783FEC01B6428F1D8AE
:1005F00028688003F7D4207880073FD56868000713
:10060000800F14D068680007800F022804D1686842
:10061000C003800F01280AD0E068002828681ED097
:10062000012108432860FFF763FE07460CE02868B5
:1006300080070CD5E068012800D108E080E1FFF7D1
:1006400057FEC01B0228C5D828688007F7D5286840
:10065000F82188432169C900084328600EE040085A
:1006600040002860FFF744FE074604E0FFF740FE25
:10067000C01B0228AED828688007F7D4207800076E
:1006800023D5E0690028686A0FD001210843686219
:10069000FFF72EFE074604E0FFF72AFEC01B0228E4
:1006A00098D8686A8007F7D50FE040084000686274
:1006B000FFF71EFE074605E0C3E0FFF719FEC01B6B
:1006C000022887D8686A8007F7D420780427400773
:1006D000002861DA00200190E869C00008D4E969C7
:1006E000B8060143E961E9690140012000910190E8
:1006F00096480168C90511D401688215114301604B
:10070000FFF7F6FD009005E0FFF7F2FD0099401AB3
:10071000642898D88D480068C005F5D5A0680128E0
:100720000AD0002801D0052811D0286A40084000CE
:100730002862286AB84302E0286A01210843286237
:10074000A068002812D0FFF7D3FD00900AE0286AC5
:1007500038432862F0E7FFF7CBFD0099411A7C4847
:1007600081426ED8286A8007F5D50DE0FFF7C0FDFD
:10077000009006E0FFF7BCFD0099411A74488142E1
:100780005FD8286A8007F5D40198002804D0E96969
:10079000012000078143E9612078C00635D56069F2
:1007A00001280CD0401D686B24D038436863686B07
:1007B000400840006863FFF79BFD074622E0686B36
:1007C00038436863686B012108436863FFF790FD55
:1007D000074604E0FFF78CFDC01B022831D8686B88
:1007E0008007F7D5686BF8218843A169C9000843E1
:1007F00068630AE0B8436863F4E7FFF779FDC01B5C
:1008000002281ED8686B8007F7D42078800637D579
:1008100068680007800F032814D068680007800FFD
:10082000022804D16868C003800F03280AD0206A18
:100830000028686B16D030436863FFF759FD064601
:100840000CE062E0686BC0031AD5206A012877D1FA
:1008500016E0FFF74DFD801B022856D8686BC003D9
:10086000F7D50DE0B0436863FFF742FD064604E0AC
:10087000FFF73EFD801B022847D8686BC003F7D402
:10088000606A002866D069680907890F022942D08A
:10089000012636060228286805D0B0432860FFF7F5
:1008A00027FD044633E0B0432860FFF721FD0746EB
:1008B00004E0FFF71DFDC01B022826D82868800130
:1008C000F7D4E86A216B000900010843E862A16AD5
:1008D000E06A084369687B22D20391430843686059
:1008E000286830432860FFF703FD044604E0FFF763
:1008F000FFFC001B022808D828688001F7D529E0F2
:10090000FFF7F6FC001B022801D90320FEBD286872
:100910008001F5D41EE00128F8D06868E96A032256
:10092000D203A36A02409A420AD10907226B090F37
:10093000914205D10F2189040840E16A884209D01B
:100940000120FEBD000001000010024000700040C8
:10095000881300000020F4E7094910B5401E8842C2
:1009600001D9012010BD074C60610321081F00F070
:100970005DF80020A06107202061002010BD00006C
:10098000FFFFFF0000E000E0FEE7FEE77047704772
:1009900010B5FFF7B3FC10BD10B592B03421684616
:1009A000FFF706FC00240F94022000900D94012014
:1009B0000E94039010200994049010946846FFF759
:1009C000C9FD002801D072B6FEE707200D900E94F5
:1009D0000F94002110940DA8FFF7E2FC002801D02D
:1009E00072B6FEE712B010BD70477047024914227C
:1009F00088691042FCD0704700580040F8B5040CDC
:100A00008BB2264682B25E430D0C1046370C58431B
:100A1000360480190021794116466E43370C36049E
:100A20008019794126466E438919F8BD8307FF2254
:100A3000DB0E9A408907090E9940002808DB8308DD
:100A400009489B001B1818689043084318607047BA
:100A50000007000F0838830804489B001B18D8695A
:100A600090430843D861704700E400E000ED00E0E7
:100A700002E008C8121F08C1002AFAD17047704767
:100A8000002001E001C1121F002AFBD170470000C5
:100A90000B4841690322920411434161C16901225B
:100AA00092051143C161C16912111143C16181698C
:100AB000012211438161C16903221143C161704761
:100AC00000100240074801685522120311430160DB
:100AD000416841608168520011438160C168002112
:100AE000C16070470008004810B51348016805222E
:100AF0005202114301600168521091430160016A82
:100B00001122920411430162016ABB221204914333
:100B10000162FFF7CFFCE1214902FFF7EBFA074939
:100B2000CA681043C86008680C221043086008684F
:100B300021221043086010BD000800480048004012
:100B4000FFF7E4FBFFF7A4FFFFF7BCFFFFF7CCFFC5
:100B5000FFF722FF054C40256420FFF7B7FB6069D3
:100B60006840606102A000F041F8F5E70008004825
:100B7000546573740D0A000009494A68094B1A400C
:100B80004A604A680004AE23184302434A6048683A
:100B90000A151043486048684A141043486070477B
:100BA0000058004000FC80FF09494A68094B1A4080
:100BB0004A604A680004AE23184302434A6048680A
:100BC0000A159043486048684A14104348607047CB
:100BD0000058004000FC80FF0349CA691206FCD59A
:100BE00001492031088170470048004010B5044693
:100BF000002302E0FFF7F0FF5B1CE05C0028F9D166
:100C000010BD0000024881694906FCD5704700000C
:100C10000058004070B5084D084C4026A069C00639
:100C200005D56869704068616420FFF74FFBA069D3
:100C30008007F3D570BD0000000800480058004050
:100C4000000000000000000001020304060708097C
:100C5000700C00080000002018000000700A000856
:100C6000880C00081800002000040000800A00081A
:100C7000000000000000000001000000040000006F
:080C80000000000000127A00E0
:04000005080000C12E
:00000001FF
