:020000040800F2
:1000000010040020D9000008BF080008BD0800083F
:1000100000000000000000000000000000000000E0
:10002000000000000000000000000000C3080008FD
:100030000000000000000000C1080008C50800081A
:10004000EB000008EB000008EB000008EB000008E4
:10005000EB000008EB000008EB000008EB000008D4
:10006000EB000008EB000008EB000008EB000008C4
:10007000EB000008EB000008EB000008EB000008B4
:10008000EB000008EB000008EB000008EB000008A4
:10009000EB000008EB000008EB000008EB00000894
:1000A000EB000008EB000008EB000008EB00000884
:1000B000EB000008EB000008EB000008EB00000874
:1000C0000448854600F090F800480047B50900084C
:1000D000C046C0461004002004488047044800473A
:1000E000FEE7FEE7FEE7FEE7FEE7FEE71D09000884
:1000F000C100000830B50B46014600202022012433
:1001000009E00D46D5409D4205D31D469540491B4B
:100110002546954040191546521E002DF1DC30BD94
:10012000F0B51FB40646002082B005464024019178
:1001300000901BE0019922460F46304600F020F85F
:10014000049A059B801A994110D3104619462246FD
:1001500000F039F8361A8F4101972246012000211C
:10016000009F00F030F838184D4100902046641E82
:100170000028DFDC019B00982946324607B0F0BD1D
:1001800010B5202A04DB0846203AD040002110BDDB
:100190000B46D340D0402024A21A91400843194670
:1001A00010BDD2B201E00270401C491EFBD2704764
:1001B0000022F6E710B513460A4604461946FFF733
:1001C000F0FF204610BD10B5202A04DB0146203A7E
:1001D0009140002010BD914020239C1A0346E3402B
:1001E0001943904010BD0000064C0125064E05E065
:1001F000E36807CC2B430C3C98471034B442F7D348
:10020000FFF762FF440D0008640D000870B5044656
:1002100000F00EF80546601C02D00448007824184F
:1002200000F006F8401BA042FAD370BD0000002089
:100230000148806870470000000000200248816883
:1002400002788918816070470000002010B50648C8
:100250000168102211430160002000F007F800F04F
:1002600027F8002010BD00000020024070B50446B1
:100270000D4D7D202978C000FFF73CFF01460B485B
:100280000068FFF737FF00F001FB002809D1042CBC
:1002900007D200222146401E00F01EF800206C60AC
:1002A00070BD012070BD0000000000200C00002087
:1002B00008B50848816901221143816181691140B3
:1002C0000091C26901040A43C261C06908400090FC
:1002D00008BD00000010024010B500F039FB10BD51
:1002E000F8B50F4606005FD03D4D2868C007C00F27
:1002F000B84209D22868400840003843286028687E
:10030000C007C00FB8424FD13068364C81070CD5BA
:10031000400704D5606807210902084360606068EF
:10032000F0218843B168084360603078C0072CD062
:100330007068012810D0022811D0032812D021683B
:100340008907002930DA6168890889000143616002
:10035000FFF76EFF009011E021688903F1E7216843
:100360008901EEE7616BC903EBE7FFF761FF0099D5
:10037000411A1D48814201D90320F8BD60680C2153
:100380000840716889008842EFD12868C007C00F13
:10039000B8420BD9286840084000384328602868D4
:1003A000C007C00FB84201D00120F8BD3078400727
:1003B00006D56068072109028843F1680843606038
:1003C00000F018F86168094A0906090F515CC84035
:1003D000074908600020FFF749FF0020F8BD000032
:1003E000002002400010024088130000340D000875
:1003F0000C00002030B519A30FCB89B06C460FC498
:100400001AA30FCB0FC41D4A51680C200B460340A2
:100410001B48042B05D01B4D082B04D00C2B00D1FE
:10042000284609B030BD8B021B0F6C46E45CD26AD3
:1004300004AB1207120FC9039A5C890F022901D07D
:10044000032901D0002301E0002328460021FFF703
:1004500067FE214600F063FAE3E7000002030405AB
:10046000060708090A0B0C0D0E0F101001020304F9
:1004700005060708090A0B0C0D0E0F1000100240AC
:1004800000127A00006CDC02FEB5040070D0207807
:10049000F94EFA4DC00748D068680007800F012860
:1004A0001FD068680007800F022804D16868C00365
:1004B000800F022815D06168012919D0012080041D
:1004C000002901D0052917D02968B143296029687E
:1004D00081432960606800281BD0FFF7A9FE07460A
:1004E00013E02868800320D560680028CED01CE087
:1004F000286830432860EDE7296801432960F7E761
:10050000FFF796FEC01B642870D828688003F7D5D3
:100510000BE0FFF78DFE074604E0FFF789FEC01BE6
:100520006428F1D828688003F7D4207880073FD565
:1005300068680007800F14D068680007800F0228E1
:1005400004D16868C003800F01280AD0E068002841
:1005500028681ED0012108432860FFF769FE07467E
:100560000CE0286880070CD5E068012800D108E07D
:1005700080E1FFF75DFEC01B0228C5D82868800710
:10058000F7D52868F82188432169C9000843286005
:100590000EE0400840002860FFF74AFE074604E0EE
:1005A000FFF746FEC01B0228AED828688007F7D4A4
:1005B0002078000723D5E0690028686A0FD0012160
:1005C00008436862FFF734FE074604E0FFF730FE99
:1005D000C01B022898D8686A8007F7D50FE040084A
:1005E00040006862FFF724FE074605E0C3E0FFF71E
:1005F0001FFEC01B022887D8686A8007F7D42078BE
:1006000004274007002861DA00200190E869C00053
:1006100008D4E969B8060143E961E96901400120AC
:100620000091019096480168C90511D401688215AE
:1006300011430160FFF7FCFD009005E0FFF7F8FDB6
:100640000099401A642898D88D480068C005F5D5EF
:10065000A06801280AD0002801D0052811D0286AF6
:10066000400840002862286AB84302E0286A012155
:1006700008432862A068002812D0FFF7D9FD009037
:100680000AE0286A38432862F0E7FFF7D1FD0099B5
:10069000411A7C4881426ED8286A8007F5D50DE062
:1006A000FFF7C6FD009006E0FFF7C2FD0099411A72
:1006B000744881425FD8286A8007F5D401980028E1
:1006C00004D0E969012000078143E9612078C00670
:1006D00035D5606901280CD0401D686B24D03843A3
:1006E0006863686B400840006863FFF7A1FD074638
:1006F00022E0686B38436863686B012108436863D4
:10070000FFF796FD074604E0FFF792FDC01B0228A5
:1007100031D8686B8007F7D5686BF8218843A169E9
:10072000C900084368630AE0B8436863F4E7FFF769
:100730007FFDC01B02281ED8686B8007F7D4207885
:10074000800637D568680007800F032814D06868D2
:100750000007800F022804D16868C003800F0328B7
:100760000AD0206A0028686B16D030436863FFF710
:100770005FFD06460CE062E0686BC0031AD5206A94
:10078000012877D116E0FFF753FD801B022856D8C9
:10079000686BC003F7D50DE0B0436863FFF748FD11
:1007A000064604E0FFF744FD801B022847D8686B2B
:1007B000C003F7D4606A002866D069680907890F0A
:1007C000022942D0012636060228286805D0B04307
:1007D0002860FFF72DFD044633E0B0432860FFF7A3
:1007E00027FD074604E0FFF723FDC01B022826D89B
:1007F00028688001F7D4E86A216B000900010843EA
:10080000E862A16AE06A084369687B22D2039143E7
:1008100008436860286830432860FFF709FD0446F4
:1008200004E0FFF705FD001B022808D828688001B6
:10083000F7D529E0FFF7FCFC001B022801D90320B3
:10084000FEBD28688001F5D41EE00128F8D0686854
:10085000E96A0322D203A36A02409A420AD1090735
:10086000226B090F914205D10F2189040840E16AEA
:10087000884209D00120FEBD0000010000100240A6
:1008800000700040881300000020F4E7094910B50B
:10089000401E884201D9012010BD074C6061032130
:1008A000081F00F055F80020A061072020610020FB
:1008B00010BD0000FFFFFF0000E000E0FEE7FEE7E4
:1008C0007047704710B5FFF7B9FC10BD10B592B076
:1008D00034216846FFF76CFC00240F94022000903E
:1008E0000D9401200E94039010200994049010940C
:1008F0006846FFF7C9FD002801D072B6FEE7072061
:100900000D900E940F94002110940DA8FFF7E8FCB1
:10091000002801D072B6FEE712B010BD7047F8B5DE
:10092000040C8BB2264682B25E430D0C1046370C87
:100930005843360480190021794116466E43370C1E
:1009400036048019794126466E438919F8BD0000A6
:100950008307FF22DB0E9A408907090E9940002881
:1009600008DB830809489B001B181868904308435C
:10097000186070470007000F0838830804489B0080
:100980001B18D86990430843D861704700E400E021
:1009900000ED00E002E008C8121F08C1002AFAD1E9
:1009A00070477047002001E001C1121F002AFBD1EF
:1009B00070470000FFF74AFCFFF788FFD448416901
:1009C0000322920411434161C1690122920511433E
:1009D000C161D04D28685521090308432860686823
:1009E0006860A86849000843A860E8680020E860DB
:1009F000C94801683122D2051143016041680522CE
:100A0000D20211434160416AC44A114341624169C3
:100A10000122920311434161C168112292051143E1
:100A2000C1602968012001432960696881436960C8
:100A3000696901436961BA4C2069BA490843206178
:100A40002068D321084320606168B7480140616095
:100A50006068B6490843606060682715B843606005
:100A600060686114084360604026A069C00606D52E
:100A70006869304368616420FFF7C8FB02E0A06941
:100A80008007F2D50F20A062A0694006FCD56068FF
:100A9000D621084360606068012109040843606052
:100AA000616839436160616801235B0319436160D8
:100AB00006E0A169C90603D569693143696102E0AD
:100AC000A1694907F5D5A1694906FCD5616AD42217
:100AD000974F114202D06969394369616168012207
:100AE0009203114361606168C90EC9066160616863
:100AF0008D4A1140616062688C49A6390A43626080
:100B0000626801208002824362606068184360600E
:100B1000A069C00602D56869304306E0A069800775
:100B2000F6D56869FF220132104368616A69802046
:100B300002436A612022A262A2695206FCD56A6958
:100B4000802042406A616068774A10406060606857
:100B500008436060626801208002824362606268CC
:100B60001A436260A269D20603D56A6932436A6198
:100B700002E0A2699207F5D56A69402632436A61AC
:100B80000B22A262A2695206FCD56A690726F60109
:100B900072406A6162680126B60332436260642073
:100BA000FFF734FB6068C00EC006606060685E4995
:100BB0000840606060685D49A6390843606061680C
:100BC000012080028143616060680121490308437C
:100BD0006060A069C00604D5686940210843686167
:100BE00002E0A0698007F4D5686938436861A820ED
:100BF000A062A0694006FCD5606A40B207E0A16926
:100C0000C90604D5696940221143696102E0A169FE
:100C10004907F4D5A1694906FCD5616A49B20E02BB
:100C20000643002E02DD6869384305E0002E04DA31
:100C30006869FF21013108436861A069C00607D5D2
:100C400068694021084368616420FFF7DFFA07E024
:100C5000A0698007F1D56869FF2101310843686107
:100C6000A820A062A0694006FCD56168012080032D
:100C7000014361606168AA22114361606168552285
:100C8000914361606168C200114361606168021153
:100C900011436160616842101143616002E0A16923
:100CA000C90602D4A1694907F9D5A1694906FCD54D
:100CB000616A626809B2024362600A2906DD6869F6
:100CC0004021084368616869890009E00A20C1423F
:100CD00008DA6869FF2101310843686168694021C9
:100CE000884368610A2E07DD6869802108436861CE
:100CF0006869B843686152E70A20C642FBDA68694E
:100D000038436861696980208143696147E7000071
:100D10000010024000080048000400480010500085
:100D200000580040130F421000FC80FF7C010100BE
:100D300000020000000000000000000001020304A7
:100D400006070809640D00080000002010000000DC
:100D500094090008740D0008100000200004000031
:100D6000A4090008010000000400000000000000C9
:040D700000127A00F3
:04000005080000C12E
:00000001FF
