:020000040800F2
:1000000018040020D9000008330A0008310A00084B
:1000100000000000000000000000000000000000E0
:10002000000000000000000000000000370A000887
:100030000000000000000000350A0008390A00082E
:10004000EB000008EB000008EB000008EB000008E4
:10005000EB000008EB000008EB0000080D020008B0
:10006000EB000008EB000008EB000008EB000008C4
:10007000EB000008EB000008EB000008930A000802
:10008000EB000008EB000008EB000008EB000008A4
:10009000EB000008EB000008EB000008EB00000894
:1000A000EB000008EB000008EB000008EB00000884
:1000B000EB000008EB000008EB000008EB00000874
:1000C0000448854600F090F800480047AD0D000850
:1000D000C046C04618040020044880470448004732
:1000E000FEE7FEE7FEE7FEE7FEE7FEE7910A00080F
:1000F000C100000830B50B46014600202022012433
:1001000009E00D46D5409D4205D31D469540491B4B
:100110002546954040191546521E002DF1DC30BD94
:10012000F0B51FB40646002082B005464024019178
:1001300000901BE0019922460F46304600F020F85F
:10014000049A059B801A994110D3104619462246FD
:1001500000F039F8361A8F4101972246012000211C
:10016000009F00F030F838184D4100902046641E82
:100170000028DFDC019B00982946324607B0F0BD1D
:1001800010B5202A04DB0846203AD040002110BDDB
:100190000B46D340D0402024A21A91400843194670
:1001A00010BDD2B201E00270401C491EFBD2704764
:1001B0000022F6E710B513460A4604461946FFF733
:1001C000F0FF204610BD10B5202A04DB0146203A7E
:1001D0009140002010BD914020239C1A0346E3402B
:1001E0001943904010BD0000064C0125064E05E065
:1001F000E36807CC2B430C3C98471034B442F7D348
:10020000FFF762FFD40E0008F40E0008F8B5564858
:100210000168491C01600068544D012804D96869CF
:100220000121490208436861514C60685149084006
:100230006060606850490843606060682715B84393
:10024000606060686114084360604026A069C00671
:1002500005D5686970406861642000F091F8A06974
:100260008007F3D50020A062A0694006FCD5606835
:10027000012189030843606060683E49084060606E
:1002800060683D490843606060683843606060684A
:100290000121490308436060A069C00605D568696B
:1002A00070406861642000F06BF8A0694007F3D5E6
:1002B000606AC007686901D0304353E0B0436861A9
:1002C000012000F09BFD00F0E7FD0720A06200F098
:1002D000DBFD042000F07AFD00F0DCFB636A00F037
:1002E000D9FB606A1B02034300F0D4FB606A1B0267
:1002F000034300F0CFFB606A1A02024300F0C4FD22
:10030000194F7A60022000F079FD00F0C5FD04204D
:10031000A06200F0C1FD0026A66200F0B5FD02203B
:1003200000F06CFD00F0B8FD0520A06200F0B4FD07
:10033000A66200F0A9FD022000F060FD00F0ACFD17
:100340000620A06200F0A8FDA66200F09DFD0B480B
:1003500041694215114341613868012803D9686930
:10036000802108436861F8BD0000002000080048B3
:100370000058004000FC80FFAE0001000004014076
:1003800070B5044600F00EF80546601C02D0044823
:100390000078241800F006F8401BA042FAD370BD84
:1003A0000800002001488068704700000800002015
:1003B000024881680278891881607047080000202F
:1003C00010B506480168102211430160002000F0BA
:1003D00007F800F027F8002010BD000000200240C0
:1003E00070B504460D4D7D202978C000FFF782FED0
:1003F00001460B480068FFF77DFE00F001FB002876
:1004000009D1042C07D200222146401E00F01EF81C
:1004100000206C6070BD012070BD0000080000204D
:100420001400002008B50848816901221143816148
:10043000816911400091C26901040A43C261C06927
:100440000840009008BD00000010024010B500F008
:100450006FFB10BDF8B50F4606005FD03D4D286814
:10046000C007C00FB84209D228684008400038438E
:1004700028602868C007C00FB8424FD13068364C9A
:1004800081070CD5400704D560680721090208439D
:1004900060606068F0218843B1680843606030782C
:1004A000C0072CD07068012810D0022811D0032872
:1004B00012D021688907002930DA6168890889002B
:1004C00001436160FFF76EFF009011E0216889032E
:1004D000F1E721688901EEE7616BC903EBE7FFF7FC
:1004E00061FF0099411A1D48814201D90320F8BDDE
:1004F00060680C210840716889008842EFD1286843
:10050000C007C00FB8420BD92868400840003843E4
:1005100028602868C007C00FB84201D00120F8BD8C
:100520003078400706D56068072109028843F168E2
:100530000843606000F018F86168094A0906090F6D
:10054000515CC840074908600020FFF749FF0020C0
:10055000F8BD000000200240001002408813000097
:10056000C40E00081400002030B519A30FCB89B0C9
:100570006C460FC41AA30FCB0FC41D4A51680C2040
:100580000B4603401B48042B05D01B4D082B04D001
:100590000C2B00D1284609B030BD8B021B0F6C46D6
:1005A000E45CD26A04AB1207120FC9039A5C890F8C
:1005B000022901D0032901D0002301E000232846AD
:1005C0000021FFF7ADFD214600F06CFAE3E70000E3
:1005D00002030405060708090A0B0C0D0E0F101084
:1005E0000102030405060708090A0B0C0D0E0F1083
:1005F0000010024000127A00006CDC02FEB504001C
:1006000070D02078F94EFA4DC00748D068680007CE
:10061000800F01281FD068680007800F022804D1CE
:100620006868C003800F022815D06168012919D0BD
:1006300001208004002901D0052917D02968B14381
:100640002960296881432960606800281BD0FFF772
:10065000A9FE074613E02868800320D560680028BB
:10066000CED01CE0286830432860EDE729680143BC
:100670002960F7E7FFF796FEC01B642870D828684A
:100680008003F7D50BE0FFF78DFE074604E0FFF788
:1006900089FEC01B6428F1D828688003F7D420782D
:1006A00080073FD568680007800F14D0686800078E
:1006B000800F022804D16868C003800F01280AD087
:1006C000E068002828681ED0012108432860FFF751
:1006D00069FE07460CE0286880070CD5E068012811
:1006E00000D108E080E1FFF75DFEC01B0228C5D8FD
:1006F00028688007F7D52868F82188432169C90050
:10070000084328600EE0400840002860FFF74AFEDA
:10071000074604E0FFF746FEC01B0228AED8286853
:100720008007F7D42078000723D5E0690028686A9D
:100730000FD0012108436862FFF734FE074604E04A
:10074000FFF730FEC01B022898D8686A8007F7D5EB
:100750000FE0400840006862FFF724FE074605E00E
:10076000C3E0FFF71FFEC01B022887D8686A800716
:10077000F7D4207804274007002861DA0020019090
:10078000E869C00008D4E969B8060143E961E9698C
:10079000014001200091019096480168C90511D4DB
:1007A0000168821511430160FFF7FCFD009005E030
:1007B000FFF7F8FD0099401A642898D88D48006822
:1007C000C005F5D5A06801280AD0002801D0052869
:1007D00011D0286A400840002862286AB84302E025
:1007E000286A012108432862A068002812D0FFF778
:1007F000D9FD00900AE0286A38432862F0E7FFF745
:10080000D1FD0099411A7C4881426ED8286A800740
:10081000F5D50DE0FFF7C6FD009006E0FFF7C2FD3D
:100820000099411A744881425FD8286A8007F5D43C
:100830000198002804D0E969012000078143E9619B
:100840002078C00635D5606901280CD0401D686B42
:1008500024D038436863686B400840006863FFF742
:10086000A1FD074622E0686B38436863686B01218D
:1008700008436863FFF796FD074604E0FFF792FD23
:10088000C01B022831D8686B8007F7D5686BF82148
:100890008843A169C900084368630AE0B8436863F4
:1008A000F4E7FFF77FFDC01B02281ED8686B8007A6
:1008B000F7D42078800637D568680007800F0328B2
:1008C00014D068680007800F022804D16868C0034C
:1008D000800F03280AD0206A0028686B16D03043A6
:1008E0006863FFF75FFD06460CE062E0686BC003DB
:1008F0001AD5206A012877D116E0FFF753FD801B37
:10090000022856D8686BC003F7D50DE0B043686382
:10091000FFF748FD064604E0FFF744FD801B022870
:1009200047D8686BC003F7D4606A002866D069684E
:100930000907890F022942D00126360602282868B5
:1009400005D0B0432860FFF72DFD044633E0B043E7
:100950002860FFF727FD074604E0FFF723FDC01BD3
:10096000022826D828688001F7D4E86A216B00099C
:1009700000010843E862A16AE06A084369687B22D3
:10098000D203914308436860286830432860FFF72A
:1009900009FD044604E0FFF705FD001B022808D806
:1009A00028688001F7D529E0FFF7FCFC001B02282E
:1009B00001D90320FEBD28688001F5D41EE001287E
:1009C000F8D06868E96A0322D203A36A02409A4217
:1009D0000AD10907226B090F914205D10F21890421
:1009E0000840E16A884209D00120FEBD00000100F4
:1009F0000010024000700040881300000020F4E75F
:100A0000094910B5401E884201D9012010BD074C8C
:100A100060610321081F00F08BF80020A06107200F
:100A20002061002010BD0000FFFFFF0000E000E09B
:100A3000FEE7FEE77047704710B5FFF7B9FC10BD41
:100A400010B592B034216846FFF7B2FB00240F9432
:100A5000022000900D9401200E9403901020099420
:100A6000049010946846FFF7C9FD002801D072B6C3
:100A7000FEE707200D900E940F94002110940DA80E
:100A8000FFF7E8FC002801D072B6FEE712B010BDF7
:100A9000704770470249142288691042FCD07047A1
:100AA00000580040F8B5040C8BB2264682B25E4373
:100AB0000D0C1046370C584336048019002179413B
:100AC00016466E43370C36048019794126466E432C
:100AD0008919F8BD002805DBC106C90E0120884030
:100AE000014908607047000000E100E08307FF2231
:100AF000DB0E9A408907090E9940002808DB83081D
:100B000009489B001B1818689043084318607047F9
:100B10000007000F0838830804489B001B18D86999
:100B200090430843D861704700E400E000ED00E026
:100B30008307FF22DB0E9A408907090E994000289F
:100B400008DB830809489B001B181868904308437A
:100B5000186070470007000F0838830804489B009E
:100B60001B18D86990430843D861704700E400E03F
:100B700000ED00E002E008C8121F08C1002AFAD107
:100B800070477047002001E001C1121F002AFBD10D
:100B9000704700000B4841690322920411434161F0
:100BA000C169012292051143C161C169121111434A
:100BB000C1618169012211438161C169032211432D
:100BC000C161704700100240F8B54F4F78684F4C34
:100BD0002040786078684E49084378607968381515
:100BE000814379607868791408437860494D4026DC
:100BF000B869C00605D56869704068616420FFF770
:100C0000BFFBB8698007F3D50920B862B869C00690
:100C100005D56869704068616420FFF7B1FBB86969
:100C20008007F3D50220B862B8694006FCD5786821
:100C30000121890308437860786834490840786066
:100C4000786833490843786078680124A402A04397
:100C500078607868E10008437860B869C00605D517
:100C60006869704068616420FFF78AFBB869800793
:100C7000F3D50820B862B869C00605D56869704028
:100C800068616420FFF77CFBB8698007F3D5E02139
:100C90003846B96281694906FCD541680127BF031E
:100CA000394341604168194A114041604168184A1E
:100CB000114341604168A143416041687A1011438A
:100CC00041600446A069C00605D568697040686146
:100CD0006420FFF755FBA0698007F3D50220A062CE
:100CE000A069C00605D56869704068616420FFF797
:100CF00047FBA0698007F3D5A662A0694006FCD532
:100D0000606838436060F8BD0058004000FC80FF18
:100D1000AE00020000080048164801683122D205E2
:100D20001143016041680522D20211434160416ACA
:100D3000114A114341624169012292031143416109
:100D4000C168112292051143C1600C48026801215B
:100D50000A43026042688A43426042690A43426130
:100D600007480269074B1A43026102680A4302609E
:100D700070470000000400480010500000080048C0
:100D800000580040130F4210074801685522120313
:100D900011430160416841608168520011438160E4
:100DA000C1680021C160704700080048FFF708FBD8
:100DB000FFF7F0FEFFF7E8FFFFF7AEFFFFF704FFD6
:100DC00000F034F8FFF73CFEFEE7000009494A68EE
:100DD000094B1A404A604A680004AE231843024394
:100DE0004A6048680A151043486048684A1410432E
:100DF000486070470058004000FC80FF09494A687D
:100E0000094B1A404A604A680004AE231843024363
:100E10004A6048680A159043486048684A1410437D
:100E2000486070470058004000FC80FF10B5134830
:100E300001680322920491430160826841020A43DF
:100E40008260C26803029A43C260C2680A43C260F9
:100E50000B48026841150A430260C2680A43C26037
:100E6000084801691022114301610720FFF732FE93
:100E700002210720FFF73AFE10BD000000040048E1
:100E80000004014000000140024881694906FCD588
:100E9000704700000058004070B5084D084C4026CF
:100EA000A069C00605D56869704068616420FFF7D5
:100EB00067FAA0698007F3D570BD000000080048FC
:100EC0000058004000000000000000000102030480
:100ED00006070809F40E00080000002018000000B2
:100EE000740B00080C0F000818000020000400001C
:100EF000840B00080000000000000000010000005A
:0C0F0000040000000000000000127A0055
:04000005080000C12E
:00000001FF
