:020000040800F2
:1000000018040020D90000086F0900086D090008D5
:1000100000000000000000000000000000000000E0
:10002000000000000000000000000000730900084C
:1000300000000000000000007109000875090008B8
:10004000EB000008EB000008EB000008EB000008E4
:10005000EB000008EB000008EB0000083502000888
:10006000EB000008EB000008EB000008EB000008C4
:10007000EB000008EB000008EB000008D1090008C5
:10008000ED090008EB000008EB000008EB00000899
:10009000EB000008EB000008EB000008EB00000894
:1000A000EB000008EB000008EB000008EB00000884
:1000B000EB000008EB000008EB000008EB00000874
:1000C0000448854600F0A4F800480047E50E000803
:1000D000C046C04618040020044880470448004732
:1000E000FEE7FEE7FEE7FEE7FEE7FEE7CD090008D4
:1000F000C100000830B50B46014600202022012433
:1001000009E00D46D5409D4205D31D469540491B4B
:100110002546954040191546521E002DF1DC30BD94
:1001200070B500242546002801DA01244042002948
:1001300001DA01254942FFF7DDFFAC4200D0404221
:10014000002C00D0494270BDF0B51FB40646002017
:1001500082B005464024019100901BE0019922469F
:100160000F46304600F020F8049A059B801A99410A
:1001700010D310461946224600F039F8361A8F413E
:100180000197224601200021009F00F030F8381826
:100190004D4100902046641E0028DFDC019B009842
:1001A0002946324607B0F0BD10B5202A04DB0846C8
:1001B000203AD040002110BD0B46D340D04020242F
:1001C000A21A91400843194610BDD2B201E0027054
:1001D000401C491EFBD270470022F6E710B51346BB
:1001E0000A4604461946FFF7F0FF204610BD10B539
:1001F000202A04DB0146203A9140002010BD9140A6
:1002000020239C1A0346E3401943904010BD000090
:10021000064C0125064E05E0E36807CC2B430C3C59
:1002200098471034B442F7D3FFF74EFF041100088B
:100230002411000810B5012000F0C8FE00F044FFB2
:10024000174C0720A06200F037FF032000F0A6FE45
:1002500000F0F8FB636A00F0F5FB606A1B020343E1
:1002600000F0F0FB606A1A02024300F025FF0D481F
:10027000962A02D90021016000E002600A4C616800
:1002800001221143616000680102081A9621FFF7FC
:1002900031FF20610548416942151143416110BD9C
:1002A000005800400000002000740040000401409D
:1002B00070B5044600F00EF80546601C02D00448F4
:1002C0000078241800F006F8401BA042FAD370BD55
:1002D00004000020014880687047000004000020EE
:1002E0000248816802788918816070470400002004
:1002F00010B506480168102211430160002000F08B
:1003000007F800F027F8002010BD00000020024090
:1003100070B504460D4D7D202978C000FFF7EAFE38
:1003200001460B480068FFF7E5FE00F007FB0028D8
:1003300009D1042C07D200222146401E00F01EF8ED
:1003400000206C6070BD012070BD00000400002022
:100350001000002008B5084881690122114381611D
:10036000816911400091C26901040A43C261C069F8
:100370000840009008BD00000010024010B500F0D9
:10038000BDFB10BDF8B50F4606005FD03D4D286897
:10039000C007C00FB84209D228684008400038435F
:1003A00028602868C007C00FB8424FD13068364C6B
:1003B00081070CD5400704D560680721090208436E
:1003C00060606068F0218843B168084360603078FD
:1003D000C0072CD07068012810D0022811D0032843
:1003E00012D021688907002930DA616889088900FC
:1003F00001436160FFF76EFF009011E021688903FF
:10040000F1E721688901EEE7616BC903EBE7FFF7CC
:1004100061FF0099411A1D48814201D90320F8BDAE
:1004200060680C210840716889008842EFD1286813
:10043000C007C00FB8420BD92868400840003843B5
:1004400028602868C007C00FB84201D00120F8BD5D
:100450003078400706D56068072109028843F168B3
:100460000843606000F01EF86168094A0906090F38
:10047000515CC840074908600020FFF749FF002091
:10048000F8BD000000200240001002408813000068
:10049000F4100008100000200148006870470000B8
:1004A0001000002030B519A30FCB89B06C460FC4E3
:1004B0001AA30FCB0FC41D4A51680C200B460340F2
:1004C0001B48042B05D01B4D082B04D00C2B00D14E
:1004D000284609B030BD8B021B0F6C46E45CD26A23
:1004E00004AB1207120FC9039A5C890F022901D0CD
:1004F000032901D0002301E0002328460021FFF753
:1005000023FE214600F0A6FAE3E7000002030405FB
:10051000060708090A0B0C0D0E0F10100102030448
:1005200005060708090A0B0C0D0E0F1000100240FB
:1005300000127A00006CDC02FEB5040070D0207856
:10054000F94EFA4DC00748D068680007800F0128AF
:100550001FD068680007800F022804D16868C003B4
:10056000800F022815D06168012919D0012080046C
:10057000002901D0052917D02968B14329602968CD
:1005800081432960606800281BD0FFF7A3FE07465F
:1005900013E02868800320D560680028CED01CE0D6
:1005A000286830432860EDE7296801432960F7E7B0
:1005B000FFF790FEC01B642870D828688003F7D529
:1005C0000BE0FFF787FE074604E0FFF783FEC01B42
:1005D0006428F1D828688003F7D4207880073FD5B5
:1005E00068680007800F14D068680007800F022831
:1005F00004D16868C003800F01280AD0E068002891
:1006000028681ED0012108432860FFF763FE0746D3
:100610000CE0286880070CD5E068012800D108E0CC
:1006200080E1FFF757FEC01B0228C5D82868800765
:10063000F7D52868F82188432169C9000843286054
:100640000EE0400840002860FFF744FE074604E043
:10065000FFF740FEC01B0228AED828688007F7D4F9
:100660002078000723D5E0690028686A0FD00121AF
:1006700008436862FFF72EFE074604E0FFF72AFEF4
:10068000C01B022898D8686A8007F7D50FE0400899
:1006900040006862FFF71EFE074605E0C3E0FFF773
:1006A00019FEC01B022887D8686A8007F7D4207813
:1006B00004274007002861DA00200190E869C000A3
:1006C00008D4E969B8060143E961E96901400120FC
:1006D0000091019096480168C90511D401688215FE
:1006E00011430160FFF7F6FD009005E0FFF7F2FD12
:1006F0000099401A642898D88D480068C005F5D53F
:10070000A06801280AD0002801D0052811D0286A45
:10071000400840002862286AB84302E0286A0121A4
:1007200008432862A068002812D0FFF7D3FD00908C
:100730000AE0286A38432862F0E7FFF7CBFD00990A
:10074000411A7C4881426ED8286A8007F5D50DE0B1
:10075000FFF7C0FD009006E0FFF7BCFD0099411ACD
:10076000744881425FD8286A8007F5D40198002830
:1007700004D0E969012000078143E9612078C006BF
:1007800035D5606901280CD0401D686B24D03843F2
:100790006863686B400840006863FFF79BFD07468D
:1007A00022E0686B38436863686B01210843686323
:1007B000FFF790FD074604E0FFF78CFDC01B022801
:1007C00031D8686B8007F7D5686BF8218843A16939
:1007D000C900084368630AE0B8436863F4E7FFF7B9
:1007E00079FDC01B02281ED8686B8007F7D42078DB
:1007F000800637D568680007800F032814D0686822
:100800000007800F022804D16868C003800F032806
:100810000AD0206A0028686B16D030436863FFF75F
:1008200059FD06460CE062E0686BC0031AD5206AE9
:10083000012877D116E0FFF74DFD801B022856D81E
:10084000686BC003F7D50DE0B0436863FFF742FD66
:10085000064604E0FFF73EFD801B022847D8686B80
:10086000C003F7D4606A002866D069680907890F59
:10087000022942D0012636060228286805D0B04356
:100880002860FFF727FD044633E0B0432860FFF7F8
:1008900021FD074604E0FFF71DFDC01B022826D8F6
:1008A00028688001F7D4E86A216B00090001084339
:1008B000E862A16AE06A084369687B22D203914337
:1008C00008436860286830432860FFF703FD04464A
:1008D00004E0FFF7FFFC001B022808D8286880010D
:1008E000F7D529E0FFF7F6FC001B022801D9032009
:1008F000FEBD28688001F5D41EE00128F8D06868A4
:10090000E96A0322D203A36A02409A420AD1090784
:10091000226B090F914205D10F2189040840E16A39
:10092000884209D00120FEBD0000010000100240F5
:1009300000700040881300000020F4E7094910B55A
:10094000401E884201D9012010BD074C606103217F
:10095000081F00F0D3F80020A061072020610020CC
:1009600010BD0000FFFFFF0000E000E0FEE7FEE733
:100970007047704710B5FFF7B3FC10BD10B592B0CB
:1009800034216846FFF728FC00240F9402200090D1
:100990000D9401200E94039010200994049010945B
:1009A0006846FFF7C9FD002801D072B6FEE70720B0
:1009B0000D900E940F94002110940DA8FFF7E2FC07
:1009C000002801D072B6FEE712B010BD70470000DB
:1009D00010B50548006800F09DFA01208007016904
:1009E00049084900016110BD0000002010B5114CFC
:1009F00020684008400020600F4A13680F484021DB
:100A0000002B10D043694B40436111680C48FFF73D
:100A100071FB4008E06220680121084320602069E2
:100A20008843206110BD42698A434261FF20F5304E
:100A3000F0E700000004004000000020000800482B
:100A400060EA00000249142288691042FCD0704715
:100A500000580040F8B5040C8BB2264682B25E43C3
:100A60000D0C1046370C584336048019002179418B
:100A700016466E43370C36048019794126466E437C
:100A80008919F8BD30B47446641E2578641CAB42E5
:100A900000D21D46635D5B00E31830BC18470000C0
:100AA000002805DBC106C90E012088400149086005
:100AB0007047000000E100E08307FF22DB0E9A4050
:100AC0008907090E9940002808DB830809489B0024
:100AD0001B18186890430843186070470007000F00
:100AE0000838830804489B001B18D86990430843C2
:100AF000D861704700E400E000ED00E08307FF22CA
:100B0000DB0E9A408907090E9940002808DB83080C
:100B100009489B001B1818689043084318607047E9
:100B20000007000F0838830804489B001B18D86989
:100B300090430843D861704700E400E000ED00E016
:100B400002E008C8121F08C1002AFAD17047704796
:100B5000002001E001C1121F002AFBD170470000F4
:100B600010B50C4801684908490001600A498162D2
:100B7000FF21F531C162C26801210A43C2600268E7
:100B80000A4302601020FFF78BFF03211020FFF7BC
:100B900093FF10BD000400403F1F00000D48416955
:100BA0000322920411434161C1690122920511435C
:100BB000C161C16912111143C161816901221143EF
:100BC0008161C16903221143C161C16942041143BA
:100BD000C1617047001002400920C006016803226D
:100BE000120211430160C1680021C160064801681A
:100BF0000422114301600168382211430160016839
:100C0000012211430160704700740040F8B5754E31
:100C10007068754F38407060706874490843706040
:100C20007168301581437160706871140843706099
:100C30006F4D4024B069C00605D5686960406861A1
:100C40006420FFF735FBB0698007F3D50920B06257
:100C5000B069C00605D56869604068616420FFF727
:100C600027FBB0698007F3D502213046B162816964
:100C70004906FCD541680122920311434160416855
:100C8000394041604168594A114341604168012738
:100C9000BF02B94341604168FA00114341602546F3
:100CA0000446A069C00606D55148416969404161C2
:100CB0006420FFF7FDFAA0698007F2D508212546D8
:100CC000A1624B4CA869C00606D560694021484026
:100CD00060616420FFF7ECFAA8698007F2D5E02094
:100CE000A862A8694006FCD5686801218903084309
:100CF000686068683C490840686068683B49084328
:100D00006860686801218902884368606868C90072
:100D1000084368604026A869C00605D56069704030
:100D200060616420FFF7C4FAA8698007F3D5022048
:100D3000A862A869C00605D560697040606164203A
:100D4000FFF7B6FAA8698007F3D5AE62A96949062C
:100D5000FCD569680126B603314369606968224F92
:100D6000394069606968234A1143696069683211D2
:100D7000914369606968D20011436960A869C0063F
:100D800006D560694021484060616420FFF790FA11
:100D9000A8698007F2D50020A862A8694006FCD5A2
:100DA00068683043686068683840686068681149FE
:100DB00008436860686801218902084368606868C0
:100DC000C900084368604026A869C00605D5606967
:100DD000704060616420FFF76BFAA8694007F3D5A3
:100DE000686AF8BD0058004000FC80FFAE000200B9
:100DF00000080048AE000100164801683122D20503
:100E00001143016041680522D20211434160416AE9
:100E1000114A114341624169012292031143416128
:100E2000C168112292051143C1600C48026801217A
:100E30000A43026042688A43426042690A4342614F
:100E400007480269074B1A43026102680A430260BD
:100E500070470000000400480010500000080048DF
:100E600000580040130F4210074801685522120332
:100E70001143016041684160816852001143816003
:100E8000C1680021C16070470008004810B51348D0
:100E9000016805225202114301600168521091431A
:100EA0000160016A1122120411430162016A772272
:100EB000520491430162FFF7EFFAE1214902FFF783
:100EC00019F90749CA681043C86008680C22104322
:100ED0000860086821221043086010BD000800481F
:100EE00000480040FFF704FAFFF758FEFFF7BCFF89
:100EF000FFF782FFFFF7CAFFFFF788FEFFF76CFEE0
:100F000000F07CF800F0A8F8FFF72AFEFFF736FDA6
:100F1000FEE70000F1B51CA000F0C2F864240A2628
:100F2000002521460098FFF7E5F83146FFF7F8F86D
:100F30000F460A212046FFF7F3F804463B00FFF76F
:100F4000A1FD0A0608121416181A1C1E200B3020C8
:100F500000E0312000F09AF86D1C032DE1DB0EA0BB
:100F600000F09EF8F8BD3220F4E73320F2E7342099
:100F7000F0E73520EEE73620ECE73720EAE73820C7
:100F8000E8E73920E6E700004865617274205261A5
:100F900074653A20000000000D0A000009494A6803
:100FA000094B1A404A604A680004AE2318430243C2
:100FB0004A6048680A151043486048684A1410435C
:100FC000486070470058004000FC80FF09494A68AB
:100FD000094B1A404A604A680004AE231843024392
:100FE0004A6048680A159043486048684A141043AC
:100FF000486070470058004000FC80FF10B513485F
:1010000001680322920491430160826841020A430D
:101010008260C26803029A43C260C2680A43C26027
:101020000B48026841150A430260C2680A43C26065
:10103000084801691022114301610720FFF730FDC4
:1010400002210720FFF738FD10BD00000004004812
:10105000000401400000014010B501200A4980074A
:1010600081627D210901C162C26801210A43C26017
:1010700002680A4302600F20FFF712FD03210F20D0
:10108000FFF71AFD10BD00003F1F00000349CA69A9
:101090001206FCD501492031088170470048004004
:1010A00010B50446002302E0FFF7F0FF5B1CE05C94
:1010B0000028F9D110BD0000024881694906FCD51D
:1010C000704700000058004070B5084D084C40269D
:1010D000A069C00605D56869704068616420FFF7A3
:1010E000E7F8A0698007F3D570BD0000000800484C
:1010F000005800400000000000000000010203044E
:101100000607080924110008000000201400000050
:10111000400B0008381100081400002004040000EF
:10112000500B000800000000010000000400000057
:081130000000000000127A002B
:04000005080000C12E
:00000001FF
