:020000040800F2
:1000000020040020D9000008AF090008AD0900084D
:1000100000000000000000000000000000000000E0
:10002000000000000000000000000000B30900080C
:100030000000000000000000B1090008B509000838
:10004000EB000008EB000008EB000008EB000008E4
:10005000EB000008EB000008EB000008310200088C
:10006000EB000008EB000008EB000008EB000008C4
:10007000EB000008EB000008EB000008110A000884
:10008000EB000008EB000008EB000008EB000008A4
:10009000EB000008EB000008EB000008EB00000894
:1000A000EB000008EB000008EB000008EB00000884
:1000B000EB000008EB000008EB000008EB00000874
:1000C0000448854600F0A2F800480047E50B000808
:1000D000C046C0462004002004488047044800472A
:1000E000FEE7FEE7FEE7FEE7FEE7FEE70D0A000893
:1000F000C100000830B50B46014600202022012433
:1001000009E00D46D5409D4205D31D469540491B4B
:100110002546954040191546521E002DF1DC30BD94
:10012000F0B51FB40646002082B005464024019178
:1001300000901BE0019922460F46304600F020F85F
:10014000049A059B801A994110D3104619462246FD
:1001500000F04BF8361A8F4101972246012000210A
:10016000009F00F042F838184D4100902046641E70
:100170000028DFDC019B00982946324607B0F0BD1D
:1001800010B5202A04DB0846203AD040002110BDDB
:100190000B46D340D0402024A21A91400843194670
:1001A00010BD03460B439B0703D009E008C9121F8B
:1001B00008C0042AFAD203E00B780370401C491CE3
:1001C000521EF9D27047D2B201E00270401C491EA3
:1001D000FBD270470022F6E710B513460A460446E4
:1001E0001946FFF7F0FF204610BD10B5202A04DBAA
:1001F0000146203A9140002010BD914020239C1AD6
:100200000346E3401943904010BD0000064C012511
:10021000064E05E0E36807CC2B430C3C98471034AE
:10022000B442F7D3FFF750FFA80D0008C80D00082F
:10023000F8B52B4D2868401C2860286801267602F6
:10024000012803D92748416931434161012000F069
:100250002BFD00F063FD244C0720A06200F056FD4A
:10026000022000F009FD00F0E5FB636A00F0E2FB0C
:10027000606A1A02024300F049FDAA60022000F001
:1002800013FD00F04BFD0420A06200F047FD0027A5
:10029000A76200F03BFD022000F006FD00F03EFDED
:1002A0000520A06200F03AFDA76200F02FFD0220B9
:1002B00000F0FAFC00F032FD0620A06200F02EFDF6
:1002C000A76200F023FD0948416931434161286874
:1002D000012804D903484169802211434161F8BDD6
:1002E00000000020000800480058004000040140C1
:1002F00070B5044600F00EF80546601C02D00448B4
:100300000078241800F006F8401BA042FAD370BD14
:100310000C00002001488068704700000C0000209D
:100320000248816802788918816070470C000020BB
:1003300010B506480168102211430160002000F04A
:1003400007F800F027F8002010BD00000020024050
:1003500070B504460D4D7D202978C000FFF7CAFE18
:1003600001460B480068FFF7C5FE00F007FB0028B8
:1003700009D1042C07D200222146401E00F01EF8AD
:1003800000206C6070BD012070BD00000C000020DA
:100390001800002008B508488169012211438161D5
:1003A000816911400091C26901040A43C261C069B8
:1003B0000840009008BD00000010024010B500F099
:1003C00087FB10BDF8B50F4606005FD03D4D28688D
:1003D000C007C00FB84209D228684008400038431F
:1003E00028602868C007C00FB8424FD13068364C2B
:1003F00081070CD5400704D560680721090208432E
:1004000060606068F0218843B168084360603078BC
:10041000C0072CD07068012810D0022811D0032802
:1004200012D021688907002930DA616889088900BB
:1004300001436160FFF76EFF009011E021688903BE
:10044000F1E721688901EEE7616BC903EBE7FFF78C
:1004500061FF0099411A1D48814201D90320F8BD6E
:1004600060680C210840716889008842EFD12868D3
:10047000C007C00FB8420BD9286840084000384375
:1004800028602868C007C00FB84201D00120F8BD1D
:100490003078400706D56068072109028843F16873
:1004A0000843606000F01EF86168094A0906090FF8
:1004B000515CC840074908600020FFF749FF002051
:1004C000F8BD000000200240001002408813000028
:1004D000980D0008180000200148006870470000CF
:1004E0001800002030B519A30FCB89B06C460FC49B
:1004F0001AA30FCB0FC41D4A51680C200B460340B2
:100500001B48042B05D01B4D082B04D00C2B00D10D
:10051000284609B030BD8B021B0F6C46E45CD26AE2
:1005200004AB1207120FC9039A5C890F022901D08C
:10053000032901D0002301E0002328460021FFF712
:10054000EFFD214600F07EFAE3E700000203040518
:10055000060708090A0B0C0D0E0F10100102030408
:1005600005060708090A0B0C0D0E0F1000100240BB
:1005700000127A00006CDC02FEB5040070D0207816
:10058000F94EFA4DC00748D068680007800F01286F
:100590001FD068680007800F022804D16868C00374
:1005A000800F022815D06168012919D0012080042C
:1005B000002901D0052917D02968B143296029688D
:1005C00081432960606800281BD0FFF7A3FE07461F
:1005D00013E02868800320D560680028CED01CE096
:1005E000286830432860EDE7296801432960F7E770
:1005F000FFF790FEC01B642870D828688003F7D5E9
:100600000BE0FFF787FE074604E0FFF783FEC01B01
:100610006428F1D828688003F7D4207880073FD574
:1006200068680007800F14D068680007800F0228F0
:1006300004D16868C003800F01280AD0E068002850
:1006400028681ED0012108432860FFF763FE074693
:100650000CE0286880070CD5E068012800D108E08C
:1006600080E1FFF757FEC01B0228C5D82868800725
:10067000F7D52868F82188432169C9000843286014
:100680000EE0400840002860FFF744FE074604E003
:10069000FFF740FEC01B0228AED828688007F7D4B9
:1006A0002078000723D5E0690028686A0FD001216F
:1006B00008436862FFF72EFE074604E0FFF72AFEB4
:1006C000C01B022898D8686A8007F7D50FE0400859
:1006D00040006862FFF71EFE074605E0C3E0FFF733
:1006E00019FEC01B022887D8686A8007F7D42078D3
:1006F00004274007002861DA00200190E869C00063
:1007000008D4E969B8060143E961E96901400120BB
:100710000091019096480168C90511D401688215BD
:1007200011430160FFF7F6FD009005E0FFF7F2FDD1
:100730000099401A642898D88D480068C005F5D5FE
:10074000A06801280AD0002801D0052811D0286A05
:10075000400840002862286AB84302E0286A012164
:1007600008432862A068002812D0FFF7D3FD00904C
:100770000AE0286A38432862F0E7FFF7CBFD0099CA
:10078000411A7C4881426ED8286A8007F5D50DE071
:10079000FFF7C0FD009006E0FFF7BCFD0099411A8D
:1007A000744881425FD8286A8007F5D401980028F0
:1007B00004D0E969012000078143E9612078C0067F
:1007C00035D5606901280CD0401D686B24D03843B2
:1007D0006863686B400840006863FFF79BFD07464D
:1007E00022E0686B38436863686B012108436863E3
:1007F000FFF790FD074604E0FFF78CFDC01B0228C1
:1008000031D8686B8007F7D5686BF8218843A169F8
:10081000C900084368630AE0B8436863F4E7FFF778
:1008200079FDC01B02281ED8686B8007F7D420789A
:10083000800637D568680007800F032814D06868E1
:100840000007800F022804D16868C003800F0328C6
:100850000AD0206A0028686B16D030436863FFF71F
:1008600059FD06460CE062E0686BC0031AD5206AA9
:10087000012877D116E0FFF74DFD801B022856D8DE
:10088000686BC003F7D50DE0B0436863FFF742FD26
:10089000064604E0FFF73EFD801B022847D8686B40
:1008A000C003F7D4606A002866D069680907890F19
:1008B000022942D0012636060228286805D0B04316
:1008C0002860FFF727FD044633E0B0432860FFF7B8
:1008D00021FD074604E0FFF71DFDC01B022826D8B6
:1008E00028688001F7D4E86A216B000900010843F9
:1008F000E862A16AE06A084369687B22D2039143F7
:1009000008436860286830432860FFF703FD044609
:1009100004E0FFF7FFFC001B022808D828688001CC
:10092000F7D529E0FFF7F6FC001B022801D90320C8
:10093000FEBD28688001F5D41EE00128F8D0686863
:10094000E96A0322D203A36A02409A420AD1090744
:10095000226B090F914205D10F2189040840E16AF9
:10096000884209D00120FEBD0000010000100240B5
:1009700000700040881300000020F4E7094910B51A
:10098000401E884201D9012010BD074C606103213F
:10099000081F00F09DF80020A061072020610020C2
:1009A00010BD0000FFFFFF0000E000E0FEE7FEE7F3
:1009B0007047704710B5FFF7B3FC10BD10B592B08B
:1009C00034216846FFF706FC00240F9402200090B3
:1009D0000D9401200E94039010200994049010941B
:1009E0006846FFF7C9FD002801D072B6FEE7072070
:1009F0000D900E940F94002110940DA8FFF7E2FCC7
:100A0000002801D072B6FEE712B010BD704700009A
:100A100006484169802251404161054901204860F2
:100A200080070169490849000161704700080048D2
:100A3000000000200249142288691042FCD070474F
:100A400000580040F8B5040C8BB2264682B25E43D3
:100A50000D0C1046370C584336048019002179419B
:100A600016466E43370C36048019794126466E438C
:100A70008919F8BD002805DBC106C90E0120884090
:100A8000014908607047000000E100E08307FF2291
:100A9000DB0E9A408907090E9940002808DB83087D
:100AA00009489B001B18186890430843186070475A
:100AB0000007000F0838830804489B001B18D869FA
:100AC00090430843D861704700E400E000ED00E087
:100AD0008307FF22DB0E9A408907090E9940002800
:100AE00008DB830809489B001B18186890430843DB
:100AF000186070470007000F0838830804489B00FF
:100B00001B18D86990430843D861704700E400E09F
:100B100000ED00E002E008C8121F08C1002AFAD167
:100B200070477047002001E001C1121F002AFBD16D
:100B3000704700000B484169032292041143416150
:100B4000C169012292051143C161C16912111143AA
:100B5000C1618169012211438161C169032211438D
:100B6000C161704700100240074801685522120316
:100B70001143016041684160816852001143816006
:100B8000C1680021C16070470008004810B51348D3
:100B9000016805225202114301600168521091431D
:100BA0000160016A1122920411430162016ABB22B1
:100BB000120491430162FFF78FFCE1214902FFF724
:100BC00099FA0749CA681043C86008680C221043A4
:100BD0000860086821221043086010BD0008004822
:100BE0000048004094B0FFF7A3FBFFF7A3FFFFF717
:100BF000BBFFFFF7CBFF00F06FF8FFF7DFFE282207
:100C000018496846FFF7CDFA1649282228310AA864
:100C1000FFF7C7FA144E002570680128FCD10020A8
:100C200070600124A40720684008400020600F483D
:100C3000A062A800694609580D48FFF75BFAE06218
:100C4000E16801200143E160216801432160094816
:100C50004169A215514041616D1C092DDCD9002567
:100C6000DAE70000480D0008000000203F1F0000E8
:100C700060EA00000008004809494A68094B1A4028
:100C80004A604A680004AE23184302434A60486839
:100C90000A151043486048684A141043486070477A
:100CA0000058004000FC80FF09494A68094B1A407F
:100CB0004A604A680004AE23184302434A60486809
:100CC0000A159043486048684A14104348607047CA
:100CD0000058004000FC80FF10B501200A49800741
:100CE00081627D210901C162C26801210A43C2609B
:100CF00002680A4302600F20FFF7BCFE03210F20A9
:100D0000FFF7C4FE10BD00003F1F000002488169CC
:100D10004906FCD5704700000058004070B5084DEA
:100D2000084C4026A069C00605D568697040686116
:100D30006420FFF7DDFAA0698007F3D570BD0000DD
:100D40000008004800580040320000004B0000003E
:100D500041000000500000006E0000005F00000035
:100D60003C0000005000000037000000640000005C
:100D7000E8030000D0070000B80B0000E803000003
:100D8000D0070000A00F0000D0070000E80300001B
:100D9000F4010000881300000000000000000000C3
:100DA0000102030406070809C80D0008000000201E
:100DB0001C000000140B0008E40D00081C000020BB
:100DC00004040000240B00080000000000000000E4
:100DD000000000000100000004000000000000000E
:040DE00000127A0083
:04000005080000C12E
:00000001FF
