:020000040800F2
:1000000018040020D90000087F0900087D090008B5
:1000100000000000000000000000000000000000E0
:10002000000000000000000000000000830900083C
:100030000000000000000000810900088509000898
:10004000EB000008EB000008EB000008EB000008E4
:10005000EB000008EB000008EB0000083502000888
:10006000EB000008EB000008EB000008EB000008C4
:10007000EB000008EB000008EB000008E1090008B5
:100080000D0A0008EB000008EB000008EB00000878
:10009000EB000008EB000008EB000008EB00000894
:1000A000EB000008EB000008EB000008EB00000884
:1000B000EB000008EB000008EB000008EB00000874
:1000C0000448854600F0A4F800480047050F0008E2
:1000D000C046C04618040020044880470448004732
:1000E000FEE7FEE7FEE7FEE7FEE7FEE7DD090008C4
:1000F000C100000830B50B46014600202022012433
:1001000009E00D46D5409D4205D31D469540491B4B
:100110002546954040191546521E002DF1DC30BD94
:1001200070B500242546002801DA01244042002948
:1001300001DA01254942FFF7DDFFAC4200D0404221
:10014000002C00D0494270BDF0B51FB40646002017
:1001500082B005464024019100901BE0019922469F
:100160000F46304600F020F8049A059B801A99410A
:1001700010D310461946224600F039F8361A8F413E
:100180000197224601200021009F00F030F8381826
:100190004D4100902046641E0028DFDC019B009842
:1001A0002946324607B0F0BD10B5202A04DB0846C8
:1001B000203AD040002110BD0B46D340D04020242F
:1001C000A21A91400843194610BDD2B201E0027054
:1001D000401C491EFBD270470022F6E710B51346BB
:1001E0000A4604461946FFF7F0FF204610BD10B539
:1001F000202A04DB0146203A9140002010BD9140A6
:1002000020239C1A0346E3401943904010BD000090
:10021000064C0125064E05E0E36807CC2B430C3C59
:1002200098471034B442F7D3FFF74EFF441100084B
:100230006411000870B51E4C2068401C20602068C6
:10024000012805D91B48416901225202114341612D
:10025000012000F0CBFE00F057FF174D0720A862E9
:1002600000F04AFF032000F0A9FE00F0FBFB6B6AE0
:1002700000F0F8FB686A1B02034300F0F3FB686AB6
:100280001A02024300F038FF962A02D9002060606B
:1002900000E06260094D6868012108436860606899
:1002A0000102081A9621FFF725FF286170BD0000A2
:1002B0000000002000080048005800400074004082
:1002C00070B5044600F00EF80546601C02D00448E4
:1002D0000078241800F006F8401BA042FAD370BD45
:1002E00008000020014880687047000008000020D6
:1002F00002488168027889188160704708000020F0
:1003000010B506480168102211430160002000F07A
:1003100007F800F027F8002010BD00000020024080
:1003200070B504460D4D7D202978C000FFF7E2FE30
:1003300001460B480068FFF7DDFE00F007FB0028D0
:1003400009D1042C07D200222146401E00F01EF8DD
:1003500000206C6070BD012070BD0000080000200E
:100360001400002008B50848816901221143816109
:10037000816911400091C26901040A43C261C069E8
:100380000840009008BD00000010024010B500F0C9
:10039000C5FB10BDF8B50F4606005FD03D4D28687F
:1003A000C007C00FB84209D228684008400038434F
:1003B00028602868C007C00FB8424FD13068364C5B
:1003C00081070CD5400704D560680721090208435E
:1003D00060606068F0218843B168084360603078ED
:1003E000C0072CD07068012810D0022811D0032833
:1003F00012D021688907002930DA616889088900EC
:1004000001436160FFF76EFF009011E021688903EE
:10041000F1E721688901EEE7616BC903EBE7FFF7BC
:1004200061FF0099411A1D48814201D90320F8BD9E
:1004300060680C210840716889008842EFD1286803
:10044000C007C00FB8420BD92868400840003843A5
:1004500028602868C007C00FB84201D00120F8BD4D
:100460003078400706D56068072109028843F168A3
:100470000843606000F01EF86168094A0906090F28
:10048000515CC840074908600020FFF749FF002081
:10049000F8BD000000200240001002408813000058
:1004A0003411000814000020014800687047000063
:1004B0001400002030B519A30FCB89B06C460FC4CF
:1004C0001AA30FCB0FC41D4A51680C200B460340E2
:1004D0001B48042B05D01B4D082B04D00C2B00D13E
:1004E000284609B030BD8B021B0F6C46E45CD26A13
:1004F00004AB1207120FC9039A5C890F022901D0BD
:10050000032901D0002301E0002328460021FFF742
:100510001BFE214600F0AEFAE3E7000002030405EB
:10052000060708090A0B0C0D0E0F10100102030438
:1005300005060708090A0B0C0D0E0F1000100240EB
:1005400000127A00006CDC02FEB5040070D0207846
:10055000F94EFA4DC00748D068680007800F01289F
:100560001FD068680007800F022804D16868C003A4
:10057000800F022815D06168012919D0012080045C
:10058000002901D0052917D02968B14329602968BD
:1005900081432960606800281BD0FFF7A3FE07464F
:1005A00013E02868800320D560680028CED01CE0C6
:1005B000286830432860EDE7296801432960F7E7A0
:1005C000FFF790FEC01B642870D828688003F7D519
:1005D0000BE0FFF787FE074604E0FFF783FEC01B32
:1005E0006428F1D828688003F7D4207880073FD5A5
:1005F00068680007800F14D068680007800F022821
:1006000004D16868C003800F01280AD0E068002880
:1006100028681ED0012108432860FFF763FE0746C3
:100620000CE0286880070CD5E068012800D108E0BC
:1006300080E1FFF757FEC01B0228C5D82868800755
:10064000F7D52868F82188432169C9000843286044
:100650000EE0400840002860FFF744FE074604E033
:10066000FFF740FEC01B0228AED828688007F7D4E9
:100670002078000723D5E0690028686A0FD001219F
:1006800008436862FFF72EFE074604E0FFF72AFEE4
:10069000C01B022898D8686A8007F7D50FE0400889
:1006A00040006862FFF71EFE074605E0C3E0FFF763
:1006B00019FEC01B022887D8686A8007F7D4207803
:1006C00004274007002861DA00200190E869C00093
:1006D00008D4E969B8060143E961E96901400120EC
:1006E0000091019096480168C90511D401688215EE
:1006F00011430160FFF7F6FD009005E0FFF7F2FD02
:100700000099401A642898D88D480068C005F5D52E
:10071000A06801280AD0002801D0052811D0286A35
:10072000400840002862286AB84302E0286A012194
:1007300008432862A068002812D0FFF7D3FD00907C
:100740000AE0286A38432862F0E7FFF7CBFD0099FA
:10075000411A7C4881426ED8286A8007F5D50DE0A1
:10076000FFF7C0FD009006E0FFF7BCFD0099411ABD
:10077000744881425FD8286A8007F5D40198002820
:1007800004D0E969012000078143E9612078C006AF
:1007900035D5606901280CD0401D686B24D03843E2
:1007A0006863686B400840006863FFF79BFD07467D
:1007B00022E0686B38436863686B01210843686313
:1007C000FFF790FD074604E0FFF78CFDC01B0228F1
:1007D00031D8686B8007F7D5686BF8218843A16929
:1007E000C900084368630AE0B8436863F4E7FFF7A9
:1007F00079FDC01B02281ED8686B8007F7D42078CB
:10080000800637D568680007800F032814D0686811
:100810000007800F022804D16868C003800F0328F6
:100820000AD0206A0028686B16D030436863FFF74F
:1008300059FD06460CE062E0686BC0031AD5206AD9
:10084000012877D116E0FFF74DFD801B022856D80E
:10085000686BC003F7D50DE0B0436863FFF742FD56
:10086000064604E0FFF73EFD801B022847D8686B70
:10087000C003F7D4606A002866D069680907890F49
:10088000022942D0012636060228286805D0B04346
:100890002860FFF727FD044633E0B0432860FFF7E8
:1008A00021FD074604E0FFF71DFDC01B022826D8E6
:1008B00028688001F7D4E86A216B00090001084329
:1008C000E862A16AE06A084369687B22D203914327
:1008D00008436860286830432860FFF703FD04463A
:1008E00004E0FFF7FFFC001B022808D828688001FD
:1008F000F7D529E0FFF7F6FC001B022801D90320F9
:10090000FEBD28688001F5D41EE00128F8D0686893
:10091000E96A0322D203A36A02409A420AD1090774
:10092000226B090F914205D10F2189040840E16A29
:10093000884209D00120FEBD0000010000100240E5
:1009400000700040881300000020F4E7094910B54A
:10095000401E884201D9012010BD074C606103216F
:10096000081F00F0DBF80020A061072020610020B4
:1009700010BD0000FFFFFF0000E000E0FEE7FEE723
:100980007047704710B5FFF7B3FC10BD10B592B0BB
:1009900034216846FFF720FC00240F9402200090C9
:1009A0000D9401200E94039010200994049010944B
:1009B0006846FFF7C9FD002801D072B6FEE70720A0
:1009C0000D900E940F94002110940DA8FFF7E2FCF7
:1009D000002801D072B6FEE712B010BD70470000CB
:1009E00010B5084841690122520251404161064850
:1009F000406800F09FFA012080070169490849001A
:100A0000016110BD000800480000002010B5114C25
:100A100020684008400020600F4A53680F4840217A
:100A2000002B10D043694B40436151680C48FFF7DD
:100A300061FB4008E06220680121084320602069D2
:100A40008843206110BD42698A434261FF20F5302E
:100A5000F0E700000004004000000020000800480B
:100A600060EA00000249142288691042FCD07047F5
:100A700000580040F8B5040C8BB2264682B25E43A3
:100A80000D0C1046370C584336048019002179416B
:100A900016466E43370C36048019794126466E435C
:100AA0008919F8BD30B47446641E2578641CAB42C5
:100AB00000D21D46635D5B00E31830BC18470000A0
:100AC000002805DBC106C90E0120884001490860E5
:100AD0007047000000E100E08307FF22DB0E9A4030
:100AE0008907090E9940002808DB830809489B0004
:100AF0001B18186890430843186070470007000FE0
:100B00000838830804489B001B18D86990430843A1
:100B1000D861704700E400E000ED00E08307FF22A9
:100B2000DB0E9A408907090E9940002808DB8308EC
:100B300009489B001B1818689043084318607047C9
:100B40000007000F0838830804489B001B18D86969
:100B500090430843D861704700E400E000ED00E0F6
:100B600002E008C8121F08C1002AFAD17047704776
:100B7000002001E001C1121F002AFBD170470000D4
:100B800010B50C4801684908490001600A498162B2
:100B9000FF21F531C162C26801210A43C2600268C7
:100BA0000A4302601020FFF78BFF02211020FFF79D
:100BB00093FF10BD000400403F1F00000D48416935
:100BC0000322920411434161C1690122920511433C
:100BD000C161C16912111143C161816901221143CF
:100BE0008161C16903221143C161C169420411439A
:100BF000C1617047001002400920C006016803224D
:100C0000120211430160C1680021C16006480168F9
:100C10000422114301600168382211430160016818
:100C2000012211430160704700740040F8B5754E11
:100C30007068754F38407060706874490843706020
:100C40007168301581437160706871140843706079
:100C50006F4D4024B069C00605D568696040686181
:100C60006420FFF72DFBB0698007F3D50920B0623F
:100C7000B069C00605D56869604068616420FFF707
:100C80001FFBB0698007F3D502213046B16281694C
:100C90004906FCD541680122920311434160416835
:100CA000394041604168594A114341604168012718
:100CB000BF02B94341604168FA00114341602546D3
:100CC0000446A069C00606D55148416969404161A2
:100CD0006420FFF7F5FAA0698007F2D508212546C0
:100CE000A1624B4CA869C00606D560694021484006
:100CF00060616420FFF7E4FAA8698007F2D5E0207C
:100D0000A862A8694006FCD56868012189030843E8
:100D1000686068683C490840686068683B49084307
:100D20006860686801218902884368606868C90052
:100D3000084368604026A869C00605D56069704010
:100D400060616420FFF7BCFAA8698007F3D5022030
:100D5000A862A869C00605D560697040606164201A
:100D6000FFF7AEFAA8698007F3D5AE62A969490614
:100D7000FCD569680126B603314369606968224F72
:100D8000394069606968234A1143696069683211B2
:100D9000914369606968D20011436960A869C0061F
:100DA00006D560694021484060616420FFF788FAF9
:100DB000A8698007F2D50020A862A8694006FCD582
:100DC00068683043686068683840686068681149DE
:100DD00008436860686801218902084368606868A0
:100DE000C900084368604026A869C00605D5606947
:100DF000704060616420FFF763FAA8694007F3D58B
:100E0000686AF8BD0058004000FC80FFAE00020098
:100E100000080048AE000100164801683122D205E2
:100E20001143016041680522D20211434160416AC9
:100E3000114A114341624169012292031143416108
:100E4000C168112292051143C1600C48026801215A
:100E50000A43026042688A43426042690A4342612F
:100E600007480269074B1A43026102680A4302609D
:100E700070470000000400480010500000080048BF
:100E800000580040130F4210074801685522120312
:100E900011430160416841608168520011438160E3
:100EA000C1680021C16070470008004810B51348B0
:100EB00001680522520211430160016852109143FA
:100EC0000160016A1122120411430162016A772252
:100ED000520491430162FFF7E7FAE1214902FFF76B
:100EE00009F90749CA681043C86008680C22104312
:100EF0000860086821221043086010BD00080048FF
:100F000000480040FFF7FCF9FFF758FEFFF7BCFF71
:100F1000FFF782FFFFF7CAFFFFF788FEFFF76CFEBF
:100F200000F07CF800F0A8F8FFF72AFEFFF72EFD8E
:100F3000FEE70000F1B51CA000F0CAF87D24E40033
:100F40000A26002521460098FFF7D4F83146FFF71E
:100F5000E7F80F460A212046FFF7E2F804463B0077
:100F6000FFF7A0FD0A0608121416181A1C1E200B03
:100F7000302000E0312000F099F86D1C042DE1DBF9
:100F80000DA000F0A5F8F8BD3220F4E73320F2E719
:100F90003420F0E73520EEE73620ECE73720EAE7AB
:100FA0003820E8E73920E6E748656172742052612D
:100FB00074653A20000000000D0A000009494A68E3
:100FC000094B1A404A604A680004AE2318430243A2
:100FD0004A6048680A151043486048684A1410433C
:100FE000486070470058004000FC80FF09494A688B
:100FF000094B1A404A604A680004AE231843024372
:101000004A6048680A159043486048684A1410438B
:10101000486070470058004000FC80FF10B513483E
:1010200001680322920491430160826841020A43ED
:101030008260C26803029A43C260C2680A43C26007
:101040000B48026841150A430260C2680A43C26045
:10105000084801691022114301610720FFF730FDA4
:1010600003210720FFF738FD10BD000000040048F1
:10107000000401400000014010B501200A4980072A
:1010800081627D210901C162C26801210A43C260F7
:1010900002680A4302600F20FFF712FD02210F20B1
:1010A000FFF71AFD10BD00003F1F00000649CA6986
:1010B0001206FCD504492031088104484169802288
:1010C000114341617047000000480040000800489B
:1010D00010B50446002302E0FFF7E8FF5B1CE05C6C
:1010E0000028F9D1034841690122520211434161AC
:1010F00010BD000000080048024881694906FCD57F
:10110000704700000058004070B5084D084C40265C
:10111000A069C00605D56869704068616420FFF762
:10112000CFF8A0698007F3D570BD00000008004823
:10113000005800400000000000000000010203040D
:1011400006070809641100080000002018000000CC
:10115000600B00087C11000818000020000400004B
:10116000700B0008000000000000000001000000FB
:0C117000040000000000000000127A00E3
:04000005080000C12E
:00000001FF
